{
    "_format": "hh-sol-artifact-1",
    "contractName": "WavePortal",
    "sourceName": "contracts/WavePortal.sol",
    "abi": [
        {
            "inputs": [],
            "stateMutability": "nonpayable",
            "type": "constructor"
        },
        {
            "inputs": [],
            "name": "getTotalWaves",
            "outputs": [
                {
                    "internalType": "uint256",
                    "name": "",
                    "type": "uint256"
                }
            ],
            "stateMutability": "view",
            "type": "function"
        },
        {
            "inputs": [],
            "name": "wave",
            "outputs": [],
            "stateMutability": "nonpayable",
            "type": "function"
        }
    ],
    "bytecode": "0x608060405234801561001057600080fd5b5061003c60405180606001604052806024815260200161090d6024913961004160201b6102161760201c565b6101c4565b6100dd816040516024016100559190610142565b6040516020818303038152906040527f41304fac000000000000000000000000000000000000000000000000000000007bffffffffffffffffffffffffffffffffffffffffffffffffffffffff19166020820180517bffffffffffffffffffffffffffffffffffffffffffffffffffffffff83818316178352505050506100e060201b60201c565b50565b60008151905060006a636f6e736f6c652e6c6f679050602083016000808483855afa5050505050565b600061011482610164565b61011e818561016f565b935061012e818560208601610180565b610137816101b3565b840191505092915050565b6000602082019050818103600083015261015c8184610109565b905092915050565b600081519050919050565b600082825260208201905092915050565b60005b8381101561019e578082015181840152602081019050610183565b838111156101ad576000848401525b50505050565b6000601f19601f8301169050919050565b61073a806101d36000396000f3fe608060405234801561001057600080fd5b50600436106100365760003560e01c80636fe15b441461003b5780639a2cdc0814610045575b600080fd5b610043610063565b005b61004d6101cb565b60405161005a9190610582565b60405180910390f35b600160008082825461007591906105f1565b9250508190555060018060003373ffffffffffffffffffffffffffffffffffffffff1673ffffffffffffffffffffffffffffffffffffffff16815260200190815260200160002060008282829054906101000a900461ffff166100d891906105b9565b92506101000a81548161ffff021916908361ffff1602179055506101316040518060400160405280600d81526020017f2573206861732077617665642100000000000000000000000000000000000000815250336102af565b61016f6040518060400160405280601581526020017f6265696e67206869732077617665206e756d6265720000000000000000000000815250610216565b6101c9600160003373ffffffffffffffffffffffffffffffffffffffff1673ffffffffffffffffffffffffffffffffffffffff16815260200190815260200160002060009054906101000a900461ffff1661ffff1661034b565b565b600061020e6040518060400160405280601781526020017f5765206861766520256420746f74616c207761766573210000000000000000008152506000546103e4565b600054905090565b6102ac8160405160240161022a9190610500565b6040516020818303038152906040527f41304fac000000000000000000000000000000000000000000000000000000007bffffffffffffffffffffffffffffffffffffffffffffffffffffffff19166020820180517bffffffffffffffffffffffffffffffffffffffffffffffffffffffff8381831617835250505050610480565b50565b61034782826040516024016102c5929190610522565b6040516020818303038152906040527f319af333000000000000000000000000000000000000000000000000000000007bffffffffffffffffffffffffffffffffffffffffffffffffffffffff19166020820180517bffffffffffffffffffffffffffffffffffffffffffffffffffffffff8381831617835250505050610480565b5050565b6103e18160405160240161035f9190610582565b6040516020818303038152906040527ff5b1bba9000000000000000000000000000000000000000000000000000000007bffffffffffffffffffffffffffffffffffffffffffffffffffffffff19166020820180517bffffffffffffffffffffffffffffffffffffffffffffffffffffffff8381831617835250505050610480565b50565b61047c82826040516024016103fa929190610552565b6040516020818303038152906040527f9710a9d0000000000000000000000000000000000000000000000000000000007bffffffffffffffffffffffffffffffffffffffffffffffffffffffff19166020820180517bffffffffffffffffffffffffffffffffffffffffffffffffffffffff8381831617835250505050610480565b5050565b60008151905060006a636f6e736f6c652e6c6f679050602083016000808483855afa5050505050565b6104b281610647565b82525050565b60006104c38261059d565b6104cd81856105a8565b93506104dd818560208601610691565b6104e6816106f3565b840191505092915050565b6104fa81610687565b82525050565b6000602082019050818103600083015261051a81846104b8565b905092915050565b6000604082019050818103600083015261053c81856104b8565b905061054b60208301846104a9565b9392505050565b6000604082019050818103600083015261056c81856104b8565b905061057b60208301846104f1565b9392505050565b600060208201905061059760008301846104f1565b92915050565b600081519050919050565b600082825260208201905092915050565b60006105c482610659565b91506105cf83610659565b92508261ffff038211156105e6576105e56106c4565b5b828201905092915050565b60006105fc82610687565b915061060783610687565b9250827fffffffffffffffffffffffffffffffffffffffffffffffffffffffffffffffff0382111561063c5761063b6106c4565b5b828201905092915050565b600061065282610667565b9050919050565b600061ffff82169050919050565b600073ffffffffffffffffffffffffffffffffffffffff82169050919050565b6000819050919050565b60005b838110156106af578082015181840152602081019050610694565b838111156106be576000848401525b50505050565b7f4e487b7100000000000000000000000000000000000000000000000000000000600052601160045260246000fd5b6000601f19601f830116905091905056fea264697066735822122097a3e6e4a4bb17bc4b02d82471cbe7fd3ff8bd1bc95d6bab4489e355136c055564736f6c63430008000033536d61727420636f6e7472616374206465706c6f796564207375636365736675796c6c79",
    "linkReferences": {},
    "deployedLinkReferences": {}
}